:100000002DC051C09AC599C54EC04DC04CC04BC003
:100010004AC049C048C049C446C045C044C046C59E
:100020008EC400003A00370000003B00380000009A
:100030000000000403020100000000003900360047
:100040000101010101010101020202020102040891
:10005000102040800402010829097F0911241FBED5
:10006000CFE5D2E0DEBFCDBF21E0AAE7B0E001C01E
:100070001D92AA34B207E1F710E0A0E6B0E0EAEF83
:10008000F3E102C005900D92AA37B107D9F710E04D
:10009000CDE2D0E003C02197FE0196D9CC32D10742
:1000A000D1F7C3D59EC9ACCF909149019923A1F056
:1000B00090914801903240F590914701E92FF0E08E
:1000C000E658FF4F808381E0890F8093470180933A
:1000D000480181E090E0089520914601909145010A
:1000E0002F5F921B9F7081F0909146019F5F9F70E0
:1000F000209145019217E1F3E92FF0E0E657FF4F19
:10010000808390934601E5CF90E080E00895809150
:100110004801882329F090914701891B990B089584
:100120009091440180914301891B8F7090E0089564
:10013000EEDF892B11F180914801882361F0209135
:100140004701E22FF0E0E658FF4F808190E02F5FFB
:10015000209347010895909144018091430198179D
:10016000E1F3E0914401EF5FEF70E0934401F0E0D0
:10017000E658FF4F808190E008958FEF9FEF08953C
:10018000CF93DF9300D01F92CDB7DEB71B828B8158
:10019000811112C01A82198289819A818C3D954001
:1001A00038F4000089819A8101969A838983F4CF7B
:1001B0008B818F5F8B83EBCF0F900F900F90DF9130
:1001C000CF910895CF92DF92EF92FF920F931F93FA
:1001D000CF93DF936C01EB017B01E40EF51E10E081
:1001E00000E0CE15DF0561F06991D601ED91FC913B
:1001F0000190F081E02DC6010995080F191FF1CF7C
:10020000C801DF91CF911F910F91FF90EF90DF9088
:10021000CF9008953FB7F8948091E2009091E30069
:10022000A091E400B091E50022B708B600FE05C039
:100230002F3F19F00196A11DB11D3FBFBA2FA92F65
:10024000982F8827BC01CD01620F711D811D911D62
:1002500043E0660F771F881F991F4A95D1F70895CD
:1002600010924401109243011092450110924601F0
:100270008093DF001092DE001092DD001092DC000F
:100280001092DB00DC9ADE9AD49AD69888EA8DB96F
:1002900080EF8EB908952091E8003091E900281789
:1002A000390781F49091E6008091E700981751F0AA
:1002B000E091E600F0E0E556FF4F8081082E000C4B
:1002C000990B08958FEF9FEF08952091E8003091EA
:1002D000E9002817390739F48FB7F8941092E7002E
:1002E0001092E6008FBF0895EF92FF920F931F9335
:1002F000CF93DF93DC015C96ED90FC905D97E11469
:10030000F10479F481E090E013969C938E93129718
:1003100090E080E0DF91CF911F910F91FF90EF90DF
:1003200008955196ED91FC91529750968C9150976B
:10033000982F90950FB75E962C915E97122F1270A2
:1003400021FD6095F8942081112319F1282B208339
:10035000E7012197F1F728E0462F50E0308160FF58
:100360001AC0382B3083E7012197F1F7BA01759550
:100370006795215089F7112381F08081892380833B
:100380000FBF5C968D919C910197F1F781E090E011
:10039000C1CF2923DCCF3923E5CF9081892BEFCF43
:1003A0002091E8003091E9002817390769F480911D
:1003B000E7002091E60090E0805C9F4F821B91094E
:1003C00060E470E0DAD7089590E080E0089520912D
:1003D000E8003091E90028173907B9F49091E60058
:1003E0008091E700981789F0E091E600F0E0E5568B
:1003F000FF4F80812091E60030E02F5F3F4F2F7349
:1004000033272093E60090E008958FEF9FEF089543
:1004100080EF90E0C5DF892B29F080EF90E0D7DFF7
:10042000AFDEF6CF0895CF93CCEF80EF90E0B8DF4A
:10043000892B31F4A5DEC150C1F780E0CF9108953A
:1004400081E0FCCFCF93DF93EEDFC0E0DEEF8111E0
:1004500006C0DFEF8D2FDF91CF910895CF5F80EF42
:1004600090E09EDF892BB1F380EF90E0B0DFC11107
:10047000F5CFD82FC1E0F3CFEF92FF920F931F93E8
:10048000CF93DF93182FC4DF6EE780EF90E02CDF6F
:10049000C2E0C10F6C2F80EF90E026DF88E1E82EEC
:1004A00081E0F82ED0E0F70101917F01602F80EF0D
:1004B00090E01ADFC00FDF5F1D13F5CF6C2F80EFC8
:1004C00090E012DF6FEE80EF90E0DF91CF911F910F
:1004D0000F91FF90EF9008CF863008F080E092EB0C
:1004E000909318018093190182E0C6DFABCF9EEA9A
:1004F00090931801803208F08FE18093190182E017
:10050000BBDFA0CF80914201882311F080E0EFDFB4
:100510001092420181E008950F931F93CF93DF93D0
:1005200080912401813021F48091EA00BDDD0DC06D
:1005300080912401823081F4CFE0D1E007E111E025
:100540008991B2DD0C171D07D9F710922401DF91B4
:10055000CF911F910F91089580912401833019F458
:1005600080919A00E3CF80912401843019F4809126
:100570002301DCCF80912401853021F481E094DDDA
:1005800082E0D4CF80912401863019F48091EF006D
:10059000CDCF80912401873019F480912501C6CFF9
:1005A00080912401883011F489E3C0CF8091260125
:1005B000BDCF90913B019F5F90933B0190913B0198
:1005C0009A3011F410923B01E0913B01F0E0EE0F04
:1005D000FF1FE95DFE4F8083E0913B01F0E0EE0FED
:1005E000FF1FE95DFE4F6183089560E0E2CF90E078
:1005F000FC01E45BFF4F2491FC01E05CFF4FE491C0
:10060000EE2371F0F0E0EE0FFF1FE65CFF4FA591C7
:10061000B491EC91E22381E090E021F480E0089530
:1006200080E090E0089582E0E2DF21E0019709F0A8
:1006300020E0822F0895D498D6981DB880EF8EB907
:10064000D498D698DE98DC9889E0D1DF0197B1F490
:100650008091600010924701109248011092490168
:10066000FFDD8EEB93E09093DC008093DB008CE861
:1006700092E09093DE008093DD0008951092470190
:10068000109248011092490186E3EACF90E0FC0104
:10069000E25DFF4F3491FC01E45BFF4F2491FC01CC
:1006A000E05CFF4FE491EE23B9F0332329F03130C1
:1006B000A1F480B78F7780BFF0E0EE0FFF1FE85DF9
:1006C000FF4FA591B4918FB7611117C0F894EC91C9
:1006D00020952E232C938FBF0895323019F480B7C4
:1006E0008F7DE9CF333021F48FB58F778FBDE4CF85
:1006F000343011F78FB58F7DF9CFF894EC912E2B14
:10070000E9CFCF93DF9390E0FC01E45BFF4F2491AE
:10071000805C9F4FFC0184918823C9F090E0880F92
:10072000991FFC01EE5DFF4FA591B491FC01E85DBE
:10073000FF4FC591D49161110DC09FB7F8948C9172
:10074000209582238C938881282328839FBFDF9163
:10075000CF910895623051F49FB7F8943C91822F65
:10076000809583238C93E8812E2BEFCF8FB7F8945D
:10077000EC912E2B2C938FBFEACFE5C5D9DC873CBB
:10078000B9F4C5DC892B09F45CC0D2DC809360002D
:1007900080916000883008F454C0809160008837F0
:1007A00008F04FC06091600081E090E0E6DF43CF49
:1007B000811101C01ACF813041F4A9DC892B09F4E1
:1007C00040C0B6DC682F81E0F4CE823039F49FDC83
:1007D000892BB9F1ADDC682F82E0F6CF873099F430
:1007E00096DC892B71F1A4DC8093EF008091EF00FF
:1007F000803238F56091EF0082E090E0BEDF6091DA
:10080000EF0087E0E1CF8330A9F2843099F28530A0
:1008100089F2863089F47BDC892B99F089DC80931E
:10082000250180912501863060F46091250183E0E7
:1008300090E0A3DF86E0BECF883021F481E0809392
:1008400024010895893009F4B5CF8A3059F4109203
:100850009A0082E0CCDE019719F481E080939A003F
:1008600083E0EDCF8B3009F4A5CF8C3011F485E017
:10087000E6CF8D3071F4809161008111E2CF60E0AC
:1008800087E004DF60E087E03CDF81E08093610087
:1008900008958E3011F486E0D2CF8F3011F487E0C6
:1008A000CECF803171F688E0CACF1F920F920FB67B
:1008B0000F9211242F933F938F939F93AF93BF93E6
:1008C0008091EB009091EC00A091ED00B091EE00D2
:1008D0003091E10026E0230F2D3768F129E8230F3E
:1008E0000396A11DB11D2093E1008093EB0090932E
:1008F000EC00A093ED00B093EE008091E2009091A7
:10090000E300A091E400B091E5000196A11DB11DA6
:100910008093E2009093E300A093E400B093E5009D
:10092000BF91AF919F918F913F912F910F900FBEEB
:100930000F901F9018950296A11DB11DD4CF1F9244
:100940000F920FB60F9211242F933F934F935F9303
:100950006F937F938F939F93AF93BF93CF93EF93B7
:10096000FF938091E000823009F474C0B8F48823CA
:1009700089F1813009F454C0FF91EF91CF91BF917B
:10098000AF919F918F917F916F915F914F913F9127
:100990002F910F900FBE0F901F901895843009F47F
:1009A0005FC0B8F1853041F784E08093E0009FB1EB
:1009B000809143018F5F8F7020914401281709F4C3
:1009C00073C080934301E0914301F0E0E658FF4F8C
:1009D000908319C08FB1882331F08FB186959091A3
:1009E000DF00891319C0789B12C0E091DD00F091FF
:1009F000DE00309729F080914601809345010995EA
:100A000081E08093E0001FB8D69A8EE721C084E091
:100A1000F8CF8FB1882321F0D69888EA8DB917C016
:100A200080914501909146019817B1F3809145015D
:100A30008F5F8F7080934501E0914501F0E0E657AC
:100A4000FF4F80818FB982E08093E000D69A80E7E3
:100A50008EB992CF83E08093E000D6981FB8D5CFAF
:100A600085E08093E000D69880E78EB9E091DB00C6
:100A7000F091DC00309709F47FCFC0914301809161
:100A800044018C1709F478CF8EB18E7AE9F3759B07
:100A900073CF9091440180914301891B8F7090E046
:100AA0000995C093440168CFD698AFCF1F920F929B
:100AB0000FB60F9211242F933F934F935F936F9331
:100AC0007F938F939F93AF93BF93CF93EF93FF93B6
:100AD000E091DB00F091DC00309781F0C0914301A0
:100AE000809144018C1751F0909144018091430111
:100AF000891B8F7090E00995C09344011092E0002B
:100B0000D698CC9B18C0CE9BFCCF88EA8DB980EFDD
:100B10008EB9FF91EF91CF91BF91AF919F918F913E
:100B20007F916F915F914F913F912F910F900FBEE9
:100B30000F901F90189588EFE9CF1F920F920FB674
:100B40000F9211242F933F934F935F936F937F9353
:100B50008F939F93AF93BF93EF93FF93E091E80040
:100B6000F091E900309749F0A685B7858585968D87
:100B700091FF14C09C918923A1F4FF91EF91BF9143
:100B8000AF919F918F917F916F915F914F913F9125
:100B90002F910F900FBE0F901F9018959C91892355
:100BA00061F7A389B4899C918589809589238C9369
:100BB000868997890197F1F7608D718DA685B78534
:100BC000558538E020E0CB010197F1F7822F90E0C6
:100BD00095958795282F4C91452309F02068315031
:100BE00091F7868D81FD20958091E70090E0019638
:100BF0008F7399273091E600381799F0A091E7009C
:100C0000B0E0A556BF4F2C938093E700828D938D63
:100C10000197F1F7A389B4898C919589892B8C93DD
:100C2000ACCF868D8160868FF1CF83E080BF83BF9C
:100C3000789499B7916099BF91E09FBD8EBD86E889
:100C400086B962E089E05DDD62E082E05ADD62E063
:100C500085E057DD62E08AE054DD62E088E051DD46
:100C600062E083E04EDD60E087E010DD60E087E079
:100C700048DD81E090E05FD3809360008091600068
:100C80008F3F41F487E3809360006091600081E0D2
:100C900090E073DD82E090E04ED38093EF0080918E
:100CA000EF00803240F08FE08093EF006091EF0022
:100CB00082E090E062DD83E090E03DD38093250107
:100CC00080912501863038F0109225016091250130
:100CD00083E090E052DD10920B0110920A01109215
:100CE00009011092080110920701109206018DEC83
:100CF00090E090930D0180930C019091FC009C304A
:100D0000C8F525E530E030930701209306012BEC70
:100D100030E0309309012093080120E930E030935E
:100D20000B0120930A018BB720E1983008F020E2F4
:100D3000822B8BBF22E330E0983030F020E430E0AB
:100D40009B3010F030E020E0309304012093030149
:100D5000492F50E0983008F06FC081E001C0880F43
:100D60009A95EAF78093050180910C0190910D010D
:100D70000197F1F780910A0190910B01892B49F1BC
:100D8000E091E800F091E90020E0E03FF20709F18E
:100D9000309739F0A389B4899C91858980958923FE
:100DA0008C9380910E018E7F80930E011092E7004C
:100DB0001092E60080EF90E09093E9008093E800C5
:100DC000E0910301F0910401808190910501892B4C
:100DD0008083CBE0C15041F01BDB94DB8093260184
:100DE000809126018111F6CF80E081DB8091250181
:100DF00073DB8093260185EC8093180181E03CDB56
:100E000012DB882351F1CCEF80EF90E0C9DA039731
:100E10000CF1CFEFDFEF10E080EF90E0C1DA892B2B
:100E2000E9F080EF90E0D3DA112321F0113071F472
:100E300030E0C32F1F5FF0CF2AE030E0241B350BDA
:100E400081E001C0880F2A95EAF78CCF123091F724
:100E5000C82BF0CF95D9C150B9F6C0E0C093EA00D5
:100E6000EADB14E603EAD4E5DD2ED1E082E0F82ED9
:100E700094E0E92E2BECC22E3DEAB32ED4DB811197
:100E800008C080914201882321F01092420180E045
:100E90002EDB85E0ACDB892B09F470C08AE0A7DB90
:100EA000892B09F46BC088E0A2DB892B09F466C0AA
:100EB00083E09DDB892B09F461C010924101809190
:100EC0006100823009F0C8C02FB7F8948091EB0020
:100ED0009091EC00A091ED00B091EE002FBF4091F9
:100EE0003D0150913E0160913F0170914001841B92
:100EF000950BA60BB70B85369105A105B105F0F052
:100F00002FB7F8948091EB009091EC00A091ED0048
:100F1000B091EE002FBF80933D0190933E01A093CE
:100F20003F01B09340017FDB811108C061E087E0A1
:100F3000E8DB60E087E0AADB1092610090913C0161
:100F400080913B01981709F499CF80913C018F5F04
:100F500080933C0180913C018A3011F410923C0155
:100F6000E0913C01F0E0EE0FFF1FE95DFE4F808154
:100F700081117EC0C7DA8093260180CF4BD94B0107
:100F8000C4E64C2E512C612C712C44D96819790976
:100F9000683E734008F455C0411451046104710463
:100FA00009F045C085E023DBC1E0892B09F0C0E0F2
:100FB0008AE01DDB892B09F4CE5F88E018DB892BE2
:100FC00009F4CD5F83E013DB892B09F041C0CC5FCE
:100FD0002ADB811102C01092410180914101C817A2
:100FE00009F46DCF20DB81118DDA00931801D092C6
:100FF00019018C2F612FB5D1805D80931A01892F43
:101000006AE0AFD1805D80931B01905D90931C01DD
:1010100085E032DA17DA80914201811103C08091B4
:10102000EF0065DAD0934201C093410148CF21E03F
:10103000421A51086108710838E1831A3CEF930A9B
:10104000A4CF411451046104710409F09ECFAACFCA
:10105000CC2309F434CFBCCF80916100813009F0FA
:101060006DCFE1DA813009F069CFF092610066CF8F
:10107000E0913C01F0E0EE0FFF1FE95DFE4F808143
:10108000E0913C01F0E0EE0FFF1FE95DFE4F813083
:10109000C1F4818192EA9093180110921901809312
:1010A0001A0183E0E9D9CED9C82F8091420181117C
:1010B00003C08091EF001BDAD0934201C093260158
:1010C000DDCE8081E0913C01F0E0EE0FFF1FE95D95
:1010D000FE4F8230B1F481810093180196E4909321
:1010E0001901612F3ED1805D80931A01892F6AE03A
:1010F00038D1805D80931B01905D90931C0185E049
:10110000D1CF8081E0913C01F0E0EE0FFF1FE95D5F
:10111000FE4F873081F48181803208F08FE1809327
:10112000EF0080914201882319F08091EF00DFD910
:1011300010922601A3CE8081833079F48091420100
:10114000811106C08091EF00D2D9D0934201F0CF37
:1011500080E0CDD910924201EBCFE0913C01F0E06C
:10116000EE0FFF1FE95DFE4F8081843029F48CEA89
:101170008093180181E096CFE0913C01F0E0EE0F02
:10118000FF1FE95DFE4F8081853019F4B092180190
:10119000F1CFE0913C01F0E0EE0FFF1FE95DFE4F63
:1011A0008081863021F48091250196D9E4CEE091AA
:1011B0003C01F0E0EE0FFF1FE95DFE4F80818930BA
:1011C00089F5C092180181E057D962E670E08FE09E
:1011D00091E000D128D98823F1F0CCEF80EF90E0A6
:1011E000DFD80997DCF0C0E080EF90E0D9D8892BF8
:1011F00081F080EF90E0EBD89FEF9C0F983038F4AF
:101200002C2F2150330BF901E15FFE4F8083CF5F1C
:10121000EBCF10921701F092240130CEB1D7C1501C
:10122000E9F6F9CFE0913C01F0E0EE0FFF1FE95D38
:10123000FE4F80818B3009F021CED0932301809125
:1012400025014AD9853011F410922301E09224013E
:1012500015CECF931092F3001092F20088EE93E037
:10126000A0E0B0E08093F4009093F500A093F60026
:10127000B093F7008DE690E09093F1008093F0003A
:1012800010920701109206011092090110920801B4
:1012900010920B0110920A0110920D0110920C0194
:1012A00060910E016E7F6D7F60930E01C1E06695C7
:1012B00061706C2780E0EAD961E080E022DAC093B7
:1012C00000018BE390E0909302018093010160E0C4
:1012D00081E017DA80910E0181FD03C061E081E0B9
:1012E000D5D981E08093FC0082E08093FD0089E302
:1012F00090E09093FF008093FE00CF9108958DE6DB
:1013000090E09093F1008093F0008091E80090913C
:10131000E900805F904071F4E0910301F0910401D5
:101320009081809105018095892380831092E90046
:101330001092E8000895E199FECF9FBB8EBBE09A22
:1013400099278DB30895262FE199FECF1CBA9FBB34
:101350008EBB2DBB0FB6F894E29AE19A0FBE0196B0
:101360000895991B79E004C0991F961708F0961B01
:10137000881F7A95C9F78095089597FB072E16F474
:10138000009406D077FD08D00BD007FC05D03EF4C2
:10139000909581959F4F0895709561957F4F089521
:1013A000AA1BBB1B51E107C0AA1FBB1FA617B7078B
:1013B00010F0A61BB70B881F991F5A95A9F78095A7
:1013C0009095BC01CD010895EE0FFF1F0590F4919B
:1013D000E02D0994FB01DC0101900D920020E1F762
:1013E000089510E0CDE2D0E003C0FE01EDDF2196CC
:0A13F000CE32D107D1F7F894FFCFF9
:1013FA0037024572726F720000000000007401E249
:0A140A0000D001E7014B016501006D
:00000001FF
