:100000002DC051C06CC56BC54EC04DC04CC04BC05F
:100010004AC049C048C0EDC846C045C044C02AC710
:1000200071C700000000000403020100000001028B
:1000300004081020408004020108010101010101AF
:1000400001010202020200003900360000003B00FC
:10005000380000003A003700E501EB0111241FBE13
:10006000CFE5D2E0DEBFCDBF10E0A0E6B0E0EAE42D
:10007000F6E102C005900D92AC37B107D9F721E047
:10008000ACE7B0E001C01D92AC34B207E1F710E07C
:10009000CDE2D0E003C02197FE01A8DACC32D1072F
:1000A000D1F78ED8C6CAACCF80919A00813019F4AE
:1000B00060918C003AC080919A00823041F448E00F
:1000C00050E061E970E08BE191E0FED731C08091B2
:1000D0009A00833019F46091900027C080919A00B3
:1000E000843019F460918F0020C080919A0085308F
:1000F00031F461E08BE191E0C0D761E016C08091FE
:100100009A00863019F460918E000FC080919A0099
:10011000873019F460918D0008C080919A00883072
:1001200011F469E302C06091B1008BE191E0A5D7C1
:1001300010929A0008958BE191E09ED789E0AAD9A8
:10014000019731F4609161008BE191E091D705C096
:1001500066E370E08BE191E08DD768EF70E08BE1B2
:1001600091E0FCD764E570E08BE191E0FCC7CF93B0
:10017000DF9300D01F92CDB7DEB71B829B8198170B
:1001800098F41A82198229813A812C3D354040F435
:10019000000029813A812F5F3F4F3A832983F3CFB3
:1001A0009B819F5F9B83EACF0F900F900F90DF9111
:1001B000CF91089590919C009F5F90939C009091A7
:1001C0009C009A3011F410929C00E0919C00F0E0A9
:1001D000EE0FFF1FE356FF4F8083E0919C00F0E09D
:1001E000EE0FFF1FE356FF4F6183089560E0E2CFFB
:1001F0008BE191E098D7873CD9F48BE191E086D7E9
:10020000892B09F4A6C08BE191E08DD78093610022
:1002100080916100883008F49CC08091610088372B
:1002200008F097C06091610081E090E0F4D983CF3D
:10023000882309F46BC0813061F48BE191E066D7CB
:10024000892B09F486C08BE191E06DD7682F81E09E
:100250000DC0823061F48BE191E058D7892B09F40D
:1002600078C08BE191E05FD7682F82E0A3CF873021
:10027000C9F48BE191E04AD7892B09F46AC08BE17C
:1002800091E051D780938E0080918E00803208F0EB
:1002900060C060918E0082E090E0BDD960918E00D8
:1002A00087E0E4CF833091F1843081F1853071F1C2
:1002B0008630B9F48BE191E029D7892B09F449C044
:1002C0008BE191E030D780938D0080918D00863056
:1002D00008F03FC060918D0083E090E09CD986E0FB
:1002E00015C0883011F481E031C0893079F08A304E
:1002F00059F41092900082E0CDD8019719F481E072
:100300008093900083E022C08B3009F46FCF8C3053
:1003100011F485E01BC08D3071F480916000811173
:1003200018C060E087E07CD860E087E03BD881E0DF
:100330008093600008958E3011F486E007C08F30FE
:1003400011F487E003C0803121F488E080939A00A3
:100350000895089582E09ED821E0019709F020E0F9
:10036000822F089581E090E04ED9809361008091C2
:1003700061008F3F41F487E38093610060916100E9
:1003800081E090E048D982E090E03DD980938E00F2
:1003900080918E00803240F08FE080938E006091DB
:1003A0008E0082E090E037D983E090E02CD98093F2
:1003B0008D0080918D00863038F010928D00609114
:1003C0008D0083E090E027C9089520E040E061E0DF
:1003D00082EB90E052C482EB90E0FBC3CF93CCEF72
:1003E00082EB90E018D3892B29F481E0C0DEC15064
:1003F000B9F701C0C1E08C2FCF910895CF93DF935F
:10040000EDDF882399F0D0E0CEEF82EB90E003D3CC
:10041000892B51F082EB90E06FD2D11103C0C82F2D
:10042000D1E0F3CFDF5FF1CF8C2F01C08FEFDF91F1
:10043000CF91089582EB90E0EED2892B31F082EBE0
:1004400090E05AD281E093DEF5CF0895CF92DF920B
:10045000EF92FF920F931F93CF93DF93D82FEADF92
:100460006EE782EB90E069D2C2E0CD0F6C2F82EB99
:1004700090E063D28CE7E82E80E0F82E8701802F91
:100480008E198D1758F46801F80161918F0182EB84
:1004900090E053D2F6018081C80FF1CF6C2F82EB30
:1004A00090E04BD26FEE82EB90E0DF91CF911F9105
:1004B0000F91FF90EF90DF90CF903FC21F93CF93AB
:1004C000DF9385EC80937C0081E0C0DF87DF8111C2
:1004D00003C080E090E024C0CCEF82EB90E09BD2A0
:1004E00003972CF481E043DEC150B9F7F2CFCFEF90
:1004F000DFEF10E082EB90E08ED2892B81F082EB6F
:1005000090E0FAD1112349F0113021F4D82F80E086
:10051000C82F03C0123009F4C82B1F5FEBCFCE01E8
:10052000DF91CF911F910895CF938BEC80937C0046
:1005300081E08CDF64E670E081E990E05DD84EDF19
:10054000882309F1CCEF82EB90E065D209972CF477
:1005500081E00DDEC150B9F716C0C0E082EB90E03B
:100560005AD2892B71F082EB90E0C6D19FEF9C0F9D
:10057000983028F4EC2FF0E0E057FF4F8083CF5FF6
:10058000EDCF10929900CF910895ECE7F0E092EA58
:1005900090831182828383E059DF30CFECE7F0E073
:1005A00093EA908396E4918364E6AFD720E3280F23
:1005B0002283892F6AE0A9D7805D8383905D94832D
:1005C00085E044DF1BCFECE7F0E093EA908394E50D
:1005D000918364E69AD720E3280F2283892F6AE06B
:1005E00094D7805D8383905D948385E02FDF06CF71
:1005F0009EEA90937C00803208F08FE180937D002A
:1006000082E024DFFBCE863008F080E092EB90930E
:100610007C0080937D0082E019DFF0CE8AEA80932F
:100620007C0081E013DFEACE8CEA80937C0081E0DD
:100630000DDFE4CE8DEA80937C0081E007DFDECE23
:100640008BEA80937C0081E001DFD8CECF9362E01B
:1006500089E0A8D662E082E0A5D662E085E0A2D675
:1006600062E08AE09FD662E088E09CD662E083E0A8
:1006700099D660E087E0D4D660E087E093D672DE5A
:1006800040E855E260E070E082EB90E01FD3CBE001
:10069000C15041F0CFDED4DF8093B1008091B10032
:1006A0008111F6CF80918E00A3DF80918D00ABDFAA
:1006B0008093B10003DF80938C00CF913CCD0F93EA
:1006C0001F93CF9385E0E6D6892B69F08AE0E2D6C6
:1006D000892B49F088E0DED6892B29F083E0DAD631
:1006E000892B09F002C164E670E080E090E0FED55D
:1006F00085E0D0D6C1E0892B09F0C0E08AE0CAD6F7
:10070000892B09F4CE5F88E0C5D6892B09F4CD5F2B
:1007100083E0C0D6892B11F4CC5F02C0CC2381F0DA
:1007200019DE811102C010928B0080918B00C817D6
:1007300039F010DE811184DF8C2F45DFC0938B00F0
:1007400080916000823049F59ED50091870010911C
:1007500088002091890030918A00DC01CB01801B48
:10076000910BA20BB30B85369105A105B105F8F0ED
:100770008AD5609387007093880080938900909356
:100780008A00E8DD811113C061E087E00BD660E0EC
:1007900087E046D6109260000AC0809160008130E8
:1007A00031F4D8DD813019F482E0809360009091BB
:1007B0009B0080919C00981709F49AC080919B003F
:1007C0008F5F80939B0080919B008A3011F4109280
:1007D0009B00E0919B00F0E0EE0FFF1FE356FF4F00
:1007E0008081811102C02CDF13C0E0919B00F0E0FA
:1007F000EE0FFF1FE356FF4F8081E0919B00F0E07A
:10080000EE0FFF1FE356FF4F813029F48181BDDEDB
:100810008093B1006DC08081E0919B00F0E0EE0F0D
:10082000FF1FE356FF4F823019F48181B7DEF0CF0E
:100830008081E0919B00F0E0EE0FFF1FE356FF4F39
:10084000873019F48181D4DEE3CF8081833011F4C5
:10085000E5DEDECFE0919B00F0E0EE0FFF1FE356F8
:10086000FF4F8081843011F4DFDED2CFE0919B0016
:10087000F0E0EE0FFF1FE356FF4F8081853011F44B
:10088000D9DEC6CFE0919B00F0E0EE0FFF1FE356EC
:10089000FF4F8081863021F480918D00B4DEB8CF87
:1008A000E0919B00F0E0EE0FFF1FE356FF4F8081C9
:1008B000893019F439DE82E015C0E0919B00F0E048
:1008C000EE0FFF1FE356FF4F80818B3089F481E0EC
:1008D00080938F0080918D0096DE853011F4109208
:1008E0008F0084E080939A0003C010928B0028CF81
:1008F000CF911F910F910895209113013091140110
:1009000028173907B9F49091D1008091D200981737
:1009100089F0E091D100F0E0ED52FF4F808120910D
:10092000D10030E02F5F3F4F2F7333272093D1004A
:1009300090E008958FEF9FEF08951F93CF93DF937B
:10094000DC015C962D913C915D972115310539F4C0
:1009500081E090E013969C938E9312973DC0519640
:10096000ED91FC91529750969C915097892F8095CC
:100970001FB75E964C915E9741FB772770F941FD5A
:100980006095F8944081772311F0492B01C04823EA
:100990004083E9012197F1F748E0508160FF02C0F0
:1009A000592B01C058235083E9012197F1F766952F
:1009B000415099F7772321F090818923808303C0E8
:1009C0008081982B90831FBF5C968D919C915D9741
:1009D0000197F1F721E030E0C901DF91CF911F913C
:1009E000089520911301309114012817390781F4DB
:1009F0009091D1008091D200981751F0E091D100F0
:100A0000F0E0ED52FF4F8081082E000C990B089505
:100A10008FEF9FEF08952091130130911401281753
:100A2000390769F48091D2002091D10090E0805C78
:100A30009F4F821B910960E470E073D5089580E0B8
:100A400090E008952091130130911401281739077F
:100A500039F48FB7F8941092D2001092D1008FBF62
:100A60000895E0911301F0911401E817F90769F472
:100A7000A389B4899C918589809589238C93109250
:100A800014011092130181E0089580E00895CF933E
:100A9000DF93EC018A8D9B8D892BE9F08091130106
:100AA000909114018C179D07B1F0009709F0D9DFE0
:100AB0008E8D8E7F8E8F1092D2001092D100D093A7
:100AC0001401C0931301EB89FC8990818D89892BD6
:100AD000808381E001C080E0DF91CF9108951F9273
:100AE0000F920FB60F9211242F933F934F935F9362
:100AF0006F937F938F939F93AF93BF93EF93FF93E6
:100B0000E0911301F0911401309709F451C0968DD2
:100B1000A685B785858591FF04C09C91892329F41A
:100B200047C09C91892309F043C0A389B4899C9153
:100B30008589809589238C93868997890197F1F718
:100B4000608D718DA685B785558538E020E0CB0195
:100B50000197F1F7822F90E095958795282F4C917A
:100B6000452309F02068315091F7868D81FD20954D
:100B70008091D20090E001968F7399273091D10037
:100B8000381749F0A091D200B0E0AD52BF4F2C937E
:100B90008093D20003C0868D8160868F828D938D75
:100BA0000197F1F7A389B4899C918589892B8C934E
:100BB000FF91EF91BF91AF919F918F917F916F9135
:100BC0005F914F913F912F910F900FBE0F901F900B
:100BD00018952FE630E0FC013183208342CF1F932C
:100BE000CF93DF93EC01162F6E8D6695617081E0D7
:100BF0006827812F15D461E0812FD4D3612F70E055
:100C0000FB01E25DFF4FE491E88BFB01E65CFF4FE7
:100C1000E491F0E0EE0FFF1FE45BFF4F85919491AC
:100C20009A8B898BDF91CF911F9108951F93CF935A
:100C3000DF93EC01162F60E0812FB4D38E8D81FD00
:100C400003C061E0812FECD31C87612F70E0FB01B2
:100C5000E25DFF4FE491ED87FB01E65CFF4FE4911D
:100C6000F0E0EE0FFF1FEA5BFF4F859194919F87A5
:100C70008E87DF91CF911F9108951F93CF93DF93BC
:100C8000EC01162F1B821A8288EE93E0A0E0B0E000
:100C90008C839D83AE83BF838FE690E099838883A6
:100CA0001F8A1E8A198E188E1B8E1A8E1D8E1C8E00
:100CB0008E8D8E7F20FB81F98E8F642FCE018FDF8A
:100CC000612FCE01DF91CF911F91B0CFCF93DF93F2
:100CD000EC019A01AB011B8E1A8E198E188E1F8A99
:100CE0001E8A60E874E88EE190E050D4B9012430A7
:100CF000310518F0C901039702C081E090E09D8F93
:100D00008C8FEC85EC3008F054C0C901969587951E
:100D10008431910510F0439702C081E090E09F8BF1
:100D20008E8B6630710518F0C901059702C081E00D
:100D300090E0998F888FC90163E070E0D5D39695D4
:100D40008795969587958D30910510F00C9702C088
:100D500081E090E09B8F8A8F8BB7E83010F090E2B3
:100D600001C090E1892B8BBF9C85983028F09B3087
:100D700030F020E030E005C022E330E002C020E4A3
:100D800030E03C8B2B8B983030F481E001C0880F31
:100D90009A95EAF709C02AE030E0291B310981E081
:100DA00001C0880F2A95EAF78D8B8C8D9D8D019758
:100DB000F1F7CE01DF91CF916ACE10921701109218
:100DC000180110921501109216010895CF93DF9328
:100DD0001F92CDB7DEB78983F0DF898180931A0136
:100DE00010922201109221011092200110921F01F5
:100DF000DC9ADE9AD49AD69888EA8DB980EF8EB9BB
:100E00000F90DF91CF910895D498D6981DB880EFB8
:100E10008EB90895909116019F5F9F7020911501E2
:100E20009217E1F3E92FF0E0E45CFE4F80839093AA
:100E30001601089580911701909118019817E1F318
:100E4000E0911701EF5FEF70E0931701F0E0E45DD0
:100E5000FE4F808108959091170180911801891BA0
:100E60008F70089590911601809115019F5F891BE5
:100E70008F7008951F920F920FB60F9211240F9347
:100E80001F932F933F934F935F936F937F938F9312
:100E90009F93AF93BF93CF93EF93FF9300911F0165
:100EA000109120010115110561F0C0911801809188
:100EB00017018C1731F0CFDF90E0F8010995C0934E
:100EC000170110921901D698CC9B04C0CE9BFCCF81
:100ED00088EA01C088EF8DB980EF8EB9FF91EF915C
:100EE000CF91BF91AF919F918F917F916F915F91C2
:100EF0004F913F912F911F910F910F900FBE0F9027
:100F00001F9018951F920F920FB60F9211240F93F6
:100F10001F932F933F934F935F936F937F938F9381
:100F20009F93AF93BF93CF93EF93FF93809119015A
:100F3000823009F44CC028F4882359F0813051F1F3
:100F400083C0843009F449C010F1853009F464C0CD
:100F50007BC08FB1882331F08FB1869590911A01B3
:100F6000891330C0789B0DC0E0912101F0912201DE
:100F7000309729F08091160180931501099581E041
:100F800001C084E0809319011FB8D69A5BC08FB16D
:100F9000811118C08091150190911601981791F058
:100FA000809115018F5F8F7080931501E09115017D
:100FB000F0E0E45CFE4F80818FB982E080931901FC
:100FC000D69A03C0D69888EA8DB980E73CC083E002
:100FD00080931901D6981FB835C085E08093190118
:100FE000D69880E78EB900911F011091200101155C
:100FF000110551F1C0911801809117018C1721F151
:101000008EB18E7AE9F3759B1FC025DF90E0F80161
:101010000995C093170118C084E0809319019FB10E
:10102000809118018F5F8F7020911701281749F068
:1010300080931801E0911801F0E0E45DFE4F908389
:10104000A3CFD6988EE78EB9FF91EF91CF91BF9144
:10105000AF919F918F917F916F915F914F913F9150
:101060002F911F910F910F900FBE0F901F90189509
:10107000862FACCE862FAACEC7CECF9380911C01EF
:101080008823C1F080911D01803218F080E090E04B
:1010900019C080911E01E0916200F0916300E80F99
:1010A000F11D608380911E018F5F80931E018093EC
:1010B0001D0106C0C62FD6DE882341F38C2FAADE81
:1010C00081E090E0CF910895CF92DF92EF92FF926E
:1010D0000F931F93CF93DF936C01EB017B01E40E21
:1010E000F51E00E010E0CE15DF0531F06991C60174
:1010F000C4DF080F191FF7CFC801DF91CF911F91EF
:101100000F91FF90EF90DF90CF90089580911D0197
:10111000882331F090E020911E01821B91090895EF
:101120009ADE90E00895F2DF892BA9F080911D01ED
:10113000882371F020911E01E0916200F09163001C
:10114000E20FF11D808190E02F5F20931E01089532
:1011500071DE90E008958FEF9FEF08957093200166
:1011600060931F01089570932201609321010895F7
:10117000CF92DF92EF92FF920F931F93CF93DF9363
:101180006C01EB017B01E40EF51E00E010E0CE15D2
:10119000DF0561F06991D601ED91FC910190F0813C
:1011A000E02DC6010995080F191FF1CFC801DF9185
:1011B000CF911F910F91FF90EF90DF90CF90089506
:1011C00081B781BFB8D042DA7ADAFECF8EB5887F98
:1011D0008EBD8FB581608FBD8FB58D7F8FBD8EB574
:1011E000877F8EBD8EB58F7E8EBD8EB583608EBDA2
:1011F00008951F920F920FB60F9211242F933F93D1
:101200008F939F93AF93BF93809124019091250179
:10121000A0912601B09127013091230126E0230FF0
:101220002D3730F029E8230F0396A11DB11D03C00F
:101230000296A11DB11D2093230180932401909358
:101240002501A0932601B093270180912801909158
:101250002901A0912A01B0912B010196A11DB11D78
:101260008093280190932901A0932A01B0932B0128
:10127000BF91AF919F918F913F912F910F900FBE92
:101280000F901F9018952FB7F894609124017091DA
:10129000250180912601909127012FBF08953FB726
:1012A000F8948091280190912901A0912A01B09190
:1012B0002B0122B708B600FE05C02F3F19F001969A
:1012C000A11DB11D3FBFBA2FA92F982F8827820FCC
:1012D000911DA11DB11DBC01CD0143E0660F771F1B
:1012E000881F991F4A95D1F708950895CF92DF92EC
:1012F000EF92FF92CF93DF936B017C01D0DFEB0184
:10130000C114D104E104F10479F0EFDFC8DF6C1BF4
:101310007D0B683E7340A0F381E0C81AD108E10854
:10132000F108C851DC4FF2CFDF91CF91FF90EF90E1
:10133000DF90CF90089580B7826080BF80B78160D2
:1013400080BF83B7887F836083BF789489B78160CB
:1013500089BF3CDF86B18877866886B9379A089559
:10136000813031F480B78F7780BF80B78F7B07C023
:10137000823039F480B78F7D80BF80B78F7E80BF89
:101380000895833031F48FB58F778FBD8FB58F7B04
:1013900007C0843031F48FB58F7D8FBD8FB58F7EC0
:1013A0008FBD0895CF93DF9387FD8F7790E0FC0189
:1013B000E25DFF4F2491FC01E65CFF4F849188239E
:1013C00061F190E0880F991FFC01EE5AFF4FC59123
:1013D000D491FC01E45BFF4FA591B491611109C068
:1013E0009FB7F8948881209582238883EC912E23DF
:1013F0000BC0623061F49FB7F8943881822F8095DA
:1014000083238883EC912E2B2C939FBF06C08FB72C
:10141000F894E8812E2B28838FBFDF91CF91089518
:101420000F931F93CF93DF931F92CDB7DEB787FD46
:101430008F77282F30E0F901EE5DFF4F8491F9019D
:10144000E25DFF4F1491F901E65CFF4F0491002328
:10145000D9F0882319F0698383DF6981E02FF0E0F8
:10146000EE0FFF1FE45BFF4FA591B4918FB76111A1
:1014700006C0F8949C91E12FE095E92303C0F8940D
:10148000EC91E12BEC938FBF0F90DF91CF911F91E7
:101490000F910895CF93DF9387FD8F77282F30E04A
:1014A000F901EE5DFF4F8491F901E25DFF4FD491A8
:1014B000F901E65CFF4FC491CC2389F0811150DF24
:1014C000EC2FF0E0EE0FFF1FEA5BFF4FA591B49108
:1014D000EC91ED2381E090E021F480E002C080E017
:1014E00090E0DF91CF9108950024552704C0080EA5
:1014F000591F880F991F009729F076956795B8F3C3
:101500007105B9F7802D952F0895991B79E004C0D6
:10151000991F961708F0961B881F7A95C9F7809532
:10152000089597FB072E16F4009406D077FD08D097
:1015300049D007FC05D03EF4909581959F4F0895C2
:10154000709561957F4F0895A1E21A2EAA1BBB1BCF
:10155000FD010DC0AA1FBB1FEE1FFF1FA217B3077F
:10156000E407F50720F0A21BB30BE40BF50B661F95
:10157000771F881F991F1A9469F760957095809559
:1015800090959B01AC01BD01CF010895052E97FBFD
:1015900016F400940FD057FD05D0D6DF07FC02D01B
:1015A00046F408C050954095309521953F4F4F4FD8
:1015B0005F4F089590958095709561957F4F8F4FFF
:1015C0009F4F0895AA1BBB1B51E107C0AA1FBB1F59
:1015D000A617B70710F0A61BB70B881F991F5A95BF
:1015E000A9F780959095BC01CD010895EE0FFF1FDE
:1015F0000590F491E02D0994FB01DC0101900D921E
:101600000020E1F70895E199FECF9FBB8EBBE09AE1
:1016100099278DB30895262FE199FECF1CBA9FBB61
:101620008EBB2DBB0FB6F894E29AE19A0FBE0196DD
:10163000089510E0CDE2D0E003C0FE01D7DF21968F
:0A164000CE32D107D1F7F894FFCFA6
:10164A0002372C014572726F720000000000009D83
:0C165A0004B8080B057C04F10422050014
:00000001FF
