:10019300AA0500AFAA0600B0AA0810022FB9E3B857
:0C01A300E62A2FD0A1C3D72A4D50338B81
:06000300010F00010EFFD9
:1001E400438E805389F0438901758A9A758CA9C21C
:0601F4008DD28CD2A9227D
:090247001201E41201CAD2AF2237
:10000E0074BA2FFF74FF3EFEEF1FAC0670011E4C3C
:03001E0070F62257
:0200B200AD0798
:1000B400C2AFD2817FE87E0312000EC2817F987E98
:1000C4000812000EE4FBD281ED30E00F7FF47E01D4
:1000D40012000EC2817FD27E00800D7FD27E00127C
:1000E400000EC2817FF47E0112000EEDC313FD0BDE
:0700F400BB08D3D281D2AF9B
:0100FB0022E2
:080142008B088A09890A8D0B64
:10014A00E4F50CE50CC3950B5017AB08AA09A90AEC
:10015A00850C82758300120115FF120239050C8085
:01016A00E2B2
:01016B002271
:1001AF001202474394037BFF7A01799B7D1412015E
:0B01BF0042E50FB404FBE4F50F80F6EE
:03000B0002016C83
:06016C00C0E0C0F0C0D0AD
:10017200758A9A758CA9050DE50D75F0FA84E5F07E
:0A0182007008F50DB200B280050F01
:07018C00D0D0D0F0D0E0322A
:1001FA008F10E510B40A097F0D1202397F0A8002B6
:06020A00AF1012023922C0
:0E023900C2ACC2998F993099FDC299D2AC2205
:100226001200FCFF600C120239740129F9E43AFA53
:0302360080EE2235
:03002300020210C6
:10021000C0E0C0D030980AE599B43D0375C760C20C
:0602200098D0D0D0E032BE
:1001CA004387807598505389BF53890F43892043C9
:0A01DA008E40758DB8D28ED2AC2293
:03000000020026D5
:0C002600787FE4F6D8FD75812002006DA3
:1000FC00BB010689828A83E0225002E722BBFE0202
:09010C00E32289828A83E4932234
:10011500BB010CE58229F582E5833AF583E022509F
:1001250006E92582F8E622BBFE06E92582F8E222E9
:0D013500E58229F582E5833AF583E4932203
:100032000201AFE493A3F8E493A34003F68001F234
:1000420008DFF48029E493A3F85407240CC8C333CF
:10005200C4540F4420C8834004F456800146F6DF9E
:10006200E4800B0102040810204080900003E47E2B
:10007200019360BCA3FF543F30E509541FFEE49393
:10008200A360010ECF54C025E060A840B8E493A35A
:10009200FAE493A3F8E493A3C8C582C8CAC583CA85
:1000A200F0A3C8C582C8CAC583CADFE9DEE780BE3D
:0100090000F6
:00000001FF
